:0400000080EF00F09D
:10010000E1ECFFF0E4ECFFF0EFECFFF086EF00F045
:020000040001F9
:10FEEC000651075DD8B0FF080F01538D00018D6AD4
:10FEFC0012000F0E966E8CECFFF084CF18F0F00E03
:10FF0C00966E8CECFFF08450181212001906FEE26B
:10FF1C001200000E0E6E0D6E0C6E116E106E0F6ECA
:10FF2C00146E136E126E12000E501124146E0D51BD
:10FF3C001021136E0C511021126F12000E50115C17
:10FF4C00146E0D511059136E0C510F59126F120083
:10FF5C000C510F5DD8A406D00D51105DD8A402D061
:10FF6C000E51115D1200B116BFFFCC230C057300AE
:10FF7C0007FF88E150460E576624AC6906E57BF412
:10FF8C00633400A8DAF0053709A62010BD42DA1652
:10FF9C00CFDC84B5CF1DDBD41634FF0097218F9DA9
:10FFAC00CD6101000101000101010001000101000E
:10FFBC000000000001007F9C7F8E120000EE00F01C
:10FFCC00010EF86EFF0EF76E720EF66E3C0E506E52
:10FFDC000BD000EE3CF0010EF86EFF0EF76EAE0E7D
:10FFEC00F66E140E506E00D00900F5CFEEFF502EB9
:04FFFC00FBD712001D
:020000040030CA
:0700000015137F7CF98B91C1
:06000800FFC0FFE0FF4015
:00000001FF
