:0400000080EF00F09D
:10010000030E1F6F39ECFFF03EECFFF0E7ECFEF062
:10011000960E206FFA0E216F1E0E226F1FC024F064
:10012000ACEC00F001EE00F012EE00F0E6CF03F0D0
:10013000E6CF04F0E6CF05F0A7ECFFF008C0EEFF35
:1001400009C0EEFF0AC0EEFFE6CFEEFF242EEED789
:100150004FECFFF0AAEF00F020C000F021C001F04A
:0601600022C002F01200B3
:020000040001F9
:10FDA4000F01538D00018D6A12000F0E966EE4EC64
:10FDB400FEF084CF27F0F00E966EE4ECFEF0845053
:10FDC400271212002806FEE21200000E186E176EAB
:10FDD400166E1B6E1A6E196E1E6E1D6E1C6E120050
:10FDE40018501B241E6E17511A211D6E165119210D
:10FDF4001C6F120018501B5C1E6E17511A591D6E91
:10FE0400165119591C6F12001651195DD8A406D049
:10FE140017511A5DD8A402D018511B5D1200B116F7
:10FE2400BF01FFCC23000C0573010007FF0188E12B
:10FE34005000460E57016624AC016906E5017BF4C7
:10FE440063003400A801DAF005003709A601201088
:10FE5400BD0142DA1600CFDC8400B5CF1D00DBD42F
:10FE6400160034FF000097218F019DCD61007F9C17
:10FE74007F8E500E256F120002EE00F0010EF86E18
:10FE8400FE0EF76E220EF66E2551266E00D0090086
:10FE9400F5CFEEFF262EFBD7120021EE00F0DECFC9
:10FEA40016F0DECF17F0DECF18F0D92ADECF19F026
:10FEB400DECF1AF0DECF1BF006ECFFF0D8A464EC22
:10FEC400FFF01200D8A068ECFFF01200070ED95E14
:10FED400DACF0EF0D9CF0FF0D92696ECFFF010EE62
:10FEE40012F0EECFE6FFEECFE6FFEECFE6FFEECF69
:10FEF400E6FF96ECFFF0EACFE2FFE9CFE1FF040E64
:10FF0400E126E6CFEEFFE6CFEEFFE6CFEEFFE6CF4B
:10FF1400EEFF10EE12F0E6CFEEFFE6CFEEFFE6CFF7
:10FF2400EEFFE6CFEEFF12000E51EA6E0F51E96EBE
:10FF340012000B6E000E0C6E0B510C5C120006517D
:10FF4400075DD8A09BECFFF01200000E086E096E4E
:10FF54000A6E00C006F003C007F0A1ECFFF00B6EC0
:10FF64000B0308C016F009C017F00AC018F0000E01
:10FF7400196FF4CF1AF0F3CF1BF0F2ECFEF01CC0B3
:10FF840008F01DC009F01EC00AF001C006F004C04C
:10FF940007F0A1ECFFF00B6E0B0308C016F009C0CC
:10FFA40017F00AC018F0000E196FF4CF1AF0F3CF4F
:10FFB4001BF0F2ECFEF01CC008F01DC009F01EC0DE
:10FFC4000AF002C006F005C007F0A1ECFFF00B6ECA
:10FFD4000B0308C016F009C017F00AC018F0000E91
:10FFE400196FF4CF1AF0F3CF1BF0F2ECFEF01CC043
:0CFFF40008F01DC009F01EC00AF0120049
:020000040030CA
:0700000015137F7CF98B91C1
:06000800FFC0FFE0FF4015
:00000001FF
