:0400000080EF00F09D
:10010000030E176FDDECFFF0E4ECFFF0EFECFFF017
:1001100056ECFFF0960E186FFA0E196F1E0E1A6F3E
:1001200017C01CF0A8EC00F000C203F001C204F0FC
:1001300002C205F08CECFFF008C000F109C001F12B
:100140000AC002F13CC209F11C2EEED7A6EF00F066
:0E01500018C000F019C001F01AC002F0120031
:020000040001F9
:10FE82000F01538D00018D6A12000F0E966E53EC16
:10FE9200FFF084CF1FF0F00E966E53ECFFF084500B
:10FEA2001F1212002006FEE21200000E106E0F6EEC
:10FEB2000E6E136E126E116E166E156E146E1200A9
:10FEC20010501324166E0F511221156E0E5111216E
:10FED200146F12001050135C166E0F511259156EEA
:10FEE2000E511159146F12000E51115DD8A406D093
:10FEF2000F51125DD8A402D01051135D12000B6E87
:10FF0200000E0C6E0B510C5C12000651075DD8A05E
:10FF120080ECFFF01200000E086E096E0A6E030EEE
:10FF22000D6E10EE00F020EE03F0E6CF06F0DECF0D
:10FF320007F086ECFFF00B6E0B0308C00EF009C051
:10FF42000FF00AC010F0000E116FF4CF12F0F3CFD1
:10FF520013F061ECFFF014C008F015C009F016C0F0
:10FF62000AF00D2FE2D71200B116BFFFCC230C0509
:10FF7200730007FF88E150460E576624AC6906E518
:10FF82007BF4633400A8DAF0053709A62010BD42DD
:10FF9200DA16CFDC84B5CF1DDBD41634FF009721EF
:10FFA2008F9DCD61010001010001010100010001ED
:10FFB20001000000000001007F9C7F8E3C0E1D6F3F
:10FFC200140E1E6F120002EE00F0010EF86EFF0E0C
:10FFD200F76E6A0EF66E1D51506E0BD002EE3CF0BB
:10FFE200010EF86EFF0EF76EA60EF66E1E51506EE3
:0EFFF20000D00900F5CFEEFF502EFBD7120015
:020000040030CA
:0700000015137F7CF98B91C1
:06000800FFC0FFE0FF4015
:00000001FF
