:0400000080EF00F09D
:10010000030E006F2AECFFF02FECFFF0D8ECFEF0AE
:10011000960E016FFA0E026F1E0E036F00C005F0FF
:1001200033EC01F001EE00F012EE00F0E6CF13F038
:10013000E6CF14F0E6CF15F0A7ECFFF018C0EEFF05
:1001400019C0EEFF1AC0EEFFE6CFEEFF052EEED788
:1001500040ECFFF012EE00F0040E0003F350E12635
:10016000110E066F33EC01F0E6CF13F0E6CF14F07A
:10017000E6CF15F0A7ECFFF018C007F019C008F0A3
:100180001AC009F0E6CF0AF007C026F008C027F031
:1001900009C028F021EE00F00051056F0C93E9EC46
:1001A00000F0062FE1D711EE03F000C00DF0000EB5
:1001B000E75CD8B40BD0D8A406D0040EE1260D2FEE
:1001C000F6D7E1EF00F0010E0F27F7D7010E0E274B
:1001D000F4D7DECF29F0DECF2AF0DECF2BF0D92AFC
:1001E000F7ECFEF0D8B0FAEC00F00CB31200052FDB
:1001F000F0D71200D8A4FEEC00F012000C830551D9
:10020000005D040DF3CF0BF0040E0B27010E055D0E
:10021000D8B40ED00051040D040EF35CE96E080E44
:10022000F35CD96E2AEC01F00B51D95CD8A40BD049
:1002300027EC01F007C0DEFF08C0DEFF09C0DEFFCB
:100240000AC0DEFF1200080ED95EE95EEBD7040E8D
:10025000D95E1200DECFEEFFDECFEEFFDECFEEFF87
:10026000DECFEEFF120001C010F002C011F003C09B
:0402700012F0120076
:020000040001F9
:10FD86000F01538D00018D6A12000F0E966ED5EC91
:10FD9600FEF084CF31F0F00E966ED5ECFEF0845076
:10FDA600311212003206FEE21200000E286E276E95
:10FDB600266E2B6E2A6E296E2E6E2D6E2C6E1200FE
:10FDC60028502B242E6E27512A212D6E26512921AB
:10FDD6002C6F120028502B5C2E6E27512A592D6E3F
:10FDE600265129592C6F12002651295DD8A406D018
:10FDF60027512A5DD8A402D028512B5D1200B116D6
:10FE0600BF01FFCC23000C0573010007FF0188E149
:10FE16005000460E57016624AC016906E5017BF4E5
:10FE260063003400A801DAF005003709A6012010A6
:10FE3600BD0142DA1600CFDC8400B5CF1D00DBD44D
:10FE4600160034FF000097218F019DCD61007F9C35
:10FE56007F8E500E2F6F120002EE00F0010EF86E2C
:10FE6600FE0EF76E040EF66E2F51306E00D00900AE
:10FE7600F5CFEEFF302EFBD712000051040DF3CF65
:10FE86001DF01D0721EE00F02191DECF26F0DECF1A
:10FE960027F0DECF28F0D92ADECF29F0DECF2AF0F0
:10FEA600DECF2BF0F7ECFEF0D8A463ECFFF021B127
:10FEB600E9D71D51D95CD8B41200030ED95EE4D738
:10FEC600D8A067ECFFF012002181070ED95EDACFC9
:10FED6001EF0D9CF1FF0D92696ECFFF010EE22F0D7
:10FEE600EECFE6FFEECFE6FFEECFE6FFEECFE6FF84
:10FEF60096ECFFF0EACFE2FFE9CFE1FF040EE12640
:10FF0600E6CFEEFFE6CFEEFFE6CFEEFFE6CFEEFF63
:10FF160010EE22F0E6CFEEFFE6CFEEFFE6CFEEFFE5
:10FF2600E6CFEEFF12001E51EA6E1F51E96E120077
:10FF36001B6E000E1C6E1B511C5C12001651175DC9
:10FF4600D8A09BECFFF01200000E186E196E1A6E08
:10FF560010C016F013C017F0A1ECFFF01B6E1B03C8
:10FF660018C026F019C027F01AC028F0000E296F15
:10FF7600F4CF2AF0F3CF2BF0E3ECFEF02CC018F010
:10FF86002DC019F02EC01AF011C016F014C017F0CB
:10FF9600A1ECFFF01B6E1B0318C026F019C027F05A
:10FFA6001AC028F0000E296FF4CF2AF0F3CF2BF0F9
:10FFB600E3ECFEF02CC018F02DC019F02EC01AF09C
:10FFC60012C016F015C017F0A1ECFFF01B6E1B0354
:10FFD60018C026F019C027F01AC028F0000E296FA5
:10FFE600F4CF2AF0F3CF2BF0E3ECFEF02CC018F0A0
:0AFFF6002DC019F02EC01AF0120001
:020000040030CA
:0700000015137F7CF98B91C1
:06000800FFC0FFE0FF4015
:00000001FF
