:0400000080EF00F09D
:10010000050E006FD7ECFFF0DEECFFF0EFECFFF038
:100110006DECFEF0960E016FFA0E026F1E0E036F6D
:1001200000C005F03DEC01F001EE00F010EE60F0D3
:10013000E6CF14F0E6CF15F0E6CF16F0FEECFEF0B9
:1001400019C0EEFF1AC0EEFF1BC0EEFFE6CFEEFFB8
:10015000052EEED797ECFEF012EE00F0400E066F83
:100160003DEC01F0E6CF14F0E6CF15F0E6CF16F047
:10017000FEECFEF019C007F01AC008F01BC009F031
:10018000E6CF0AF007C027F008C028F009C029F020
:1001900021EE00F00051056F0C93F3EC00F0062FF8
:1001A000E1D711EE03F000C00DF0000EE75CD8B40B
:1001B00017D0D8A412D0040EE1260D2FF6D70F5178
:1001C0000E5DD8A002D0D8B004D0010E106FE7EFBA
:1001D00000F0010E106FEBEF00F0010E0F27EBD7D0
:1001E000010E0E27E8D7DECF2AF0DECF2BF0DECFD0
:1001F0002CF0D92A8CECFEF0D8B004EC01F00CB352
:100200001200052FF0D71200D8A408EC01F012005C
:100210000C830551005D040DF3CF0BF0040E0B278A
:10022000010E055DD8B40ED00051040D040EF35C30
:10023000E96E080EF35CD96E34EC01F00B51D95C19
:10024000D8A40BD031EC01F007C0DEFF08C0DEFF00
:1002500009C0DEFF0AC0DEFF1200080ED95EE95EAB
:10026000EBD7040ED95E1200DECFEEFFDECFEEFF3D
:10027000DECFEEFFDECFEEFF120001C011F002C0B4
:0802800012F003C013F012009C
:020000040001F9
:10FCB0000F01538D00018D6A12000F0E966E6AECD3
:10FCC000FEF084CF33F0F00E966E6AECFEF08450B6
:10FCD000331212003406FEE21200000E296E286E66
:10FCE000276E2C6E2B6E2A6E2F6E2E6E2D6E1200CE
:10FCF00029502C242F6E28512B212E6E27512A217A
:10FD00002D6F120029502C5C2F6E28512B592E6E0E
:10FD100027512A592D6F120027512A5DD8A406D0E9
:10FD200028512B5DD8A402D029512C5D120000511E
:10FD3000040DF3CF1EF01E0721EE00F02291DECF5E
:10FD400027F0DECF28F0DECF29F0D92ADECF2AF047
:10FD5000DECF2BF0DECF2CF08CECFEF0D8A4BAEC8A
:10FD6000FEF022B1E9D71E51D95CD8B41200030EBF
:10FD7000D95EE4D7D8A0BEECFEF012002281070EB7
:10FD8000D95EDACF1FF0D9CF20F0D926EDECFEF006
:10FD900010EE23F0EECFE6FFEECFE6FFEECFE6FF6C
:10FDA000EECFE6FFEDECFEF0EACFE2FFE9CFE1FFB8
:10FDB000040EE126E6CFEEFFE6CFEEFFE6CFEEFF44
:10FDC000E6CFEEFF10EE23F0E6CFEEFFE6CFEEFF3C
:10FDD000E6CFEEFFE6CFEEFF12001F51EA6E205194
:10FDE000E96E12001C6E000E1D6E1C511D5C12008F
:10FDF0001751185DD8A0F2ECFEF01200000E196E3B
:10FE00001A6E1B6E11C017F014C018F0F8ECFEF05B
:10FE10001C6E1C0319C027F01AC028F01BC029F063
:10FE2000000E2A6FF4CF2BF0F3CF2CF078ECFEF01D
:10FE30002DC019F02EC01AF02FC01BF012C017F001
:10FE400015C018F0F8ECFEF01C6E1C0319C027F06A
:10FE50001AC028F01BC029F0000E2A6FF4CF2BF037
:10FE6000F3CF2CF078ECFEF02DC019F02EC01AF074
:10FE70002FC01BF013C017F016C018F0F8ECFEF0FE
:10FE80001C6E1C0319C027F01AC028F01BC029F0F3
:10FE9000000E2A6FF4CF2BF0F3CF2CF078ECFEF0AD
:10FEA0002DC019F02EC01AF02FC01BF012005A16E8
:10FEB0002501481BC301C6D47600E8EE370051196E
:10FEC000BB019AD134005D25960182D22200D1F681
:10FED00047004C3DC101AEBE3200B6F02100FBE34D
:10FEE0005A00B7D52E006941A4013D087901B6DC5E
:10FEF00055007AE25900202BFF01A3DB41008FD689
:10FF000052003BFF1E0021259B010A2A920191DD30
:10FF1000590045413D0189CF6500B2E4450046DB0B
:10FF20002E007617AE018AE46600D1CE3800220793
:10FF3000A80121287D0170F56700FFC90000082B8A
:10FF400088015E11A701ADDB0D009CF4820010203A
:10FF5000830196DE47009FCE4A00A2D6480083E781
:10FF600045000C1FB101AEDD7F00162257013F2670
:10FF70009A014E1B6E01C4E5610052328B01341AA6
:10FF8000B60137198B013A00C1017123AA01C4F1EE
:10FF90004C00733E3F012E069E010021B501311D2C
:10FFA000860172389F0179D48900121792017F9CD3
:10FFB0007F8EFF0E306F140E316F120002EE00F0D4
:10FFC000010EF86EFE0EF76EBA0EF66E3051326EFE
:10FFD00000D00900F5CFEEFF322EFBD7120000EE65
:10FFE00060F0010EF86EFE0EF76EAE0EF66E315139
:10FFF000326EEFD70900F5CFEEFF322EFBD712009D
:020000040030CA
:0700000015137F7CF98B91C1
:06000800FFC0FFE0FF4015
:00000001FF
