:0400000080EF00F09D
:10010000030E0D6F2AECFFF02FECFFF0D8ECFEF0A1
:10011000960E0E6FFA0E0F6F1E0E106F0DC012F0BE
:10012000C4EC00F001EE00F012EE00F0E6CF03F0B8
:10013000E6CF04F0E6CF05F0A7ECFFF008C0EEFF35
:1001400009C0EEFF0AC0EEFFE6CFEEFF122EEED79B
:1001500040ECFFF012EE00F0040E0D03F350E12628
:10016000C4EC00F0E6CF03F0E6CF04F0E6CF04F0F5
:10017000A7ECFFF008C013F009C014F00AC015F096
:10018000E6CF16F0C2EF00F00EC000F00FC001F095
:0601900010C002F0120095
:020000040001F9
:10FD86000F01538D00018D6A12000F0E966ED5EC91
:10FD9600FEF084CF2BF0F00E966ED5ECFEF084507C
:10FDA6002B1212002C06FEE21200000E226E216EAD
:10FDB600206E256E246E236E286E276E266E120028
:10FDC60022502524286E21512421276E20512321DB
:10FDD600266F12002250255C286E21512459276E69
:10FDE60020512359266F12002051235DD8A406D036
:10FDF6002151245DD8A402D02251255D1200B116EE
:10FE0600BF01FFCC23000C0573010007FF0188E149
:10FE16005000460E57016624AC016906E5017BF4E5
:10FE260063003400A801DAF005003709A6012010A6
:10FE3600BD0142DA1600CFDC8400B5CF1D00DBD44D
:10FE4600160034FF000097218F019DCD61007F9C35
:10FE56007F8E500E296F120002EE00F0010EF86E32
:10FE6600FE0EF76E040EF66E29512A6E00D00900BA
:10FE7600F5CFEEFF2A2EFBD712000D51040DF3CF5E
:10FE860017F0170721EE00F01B91DECF20F0DECF32
:10FE960021F0DECF22F0D92ADECF23F0DECF24F008
:10FEA600DECF25F0F7ECFEF0D8A463ECFFF01BB133
:10FEB600E9D71751D95CD8B41200030ED95EE4D73E
:10FEC600D8A067ECFFF012001B81070ED95EDACFCF
:10FED60018F0D9CF19F0D92696ECFFF010EE1CF0E9
:10FEE600EECFE6FFEECFE6FFEECFE6FFEECFE6FF84
:10FEF60096ECFFF0EACFE2FFE9CFE1FF040EE12640
:10FF0600E6CFEEFFE6CFEEFFE6CFEEFFE6CFEEFF63
:10FF160010EE1CF0E6CFEEFFE6CFEEFFE6CFEEFFEB
:10FF2600E6CFEEFF12001851EA6E1951E96E120083
:10FF36000B6E000E0C6E0B510C5C12000651075D29
:10FF4600D8A09BECFFF01200000E086E096E0A6E38
:10FF560000C006F003C007F0A1ECFFF00B6E0B0328
:10FF660008C020F009C021F00AC022F0000E236F5D
:10FF7600F4CF24F0F3CF25F0E3ECFEF026C008F032
:10FF860027C009F028C00AF001C006F004C007F037
:10FF9600A1ECFFF00B6E0B0308C020F009C021F0A6
:10FFA6000AC022F0000E236FF4CF24F0F3CF25F021
:10FFB600E3ECFEF026C008F027C009F028C00AF0DE
:10FFC60002C006F005C007F0A1ECFFF00B6E0B03B4
:10FFD60008C020F009C021F00AC022F0000E236FED
:10FFE600F4CF24F0F3CF25F0E3ECFEF026C008F0C2
:0AFFF60027C009F028C00AF012002D
:020000040030CA
:0700000015137F7CF98B91C1
:06000800FFC0FFE0FF4015
:00000001FF
