:0400000080EF00F09D
:10010000050E006FD8ECFEF00A0E126FEDECFEF05B
:10011000DBECFEF0DCECFEF08CEF00F0CBECFEF064
:10012000000E956E16ECFFF0CEECFEF000C005F070
:1001300050EC01F001EE00F010EE60F0E6CF16F0AA
:10014000E6CF17F0E6CF18F0A7ECFFF01BC0EEFFEC
:100150001CC0EEFF1DC0EEFFE6CFEEFF052EEED772
:1001600040ECFFF012EE00F0400E066F50EC01F094
:10017000E6CF16F0E6CF17F0E6CF18F0A7ECFFF0C9
:100180001BC007F01CC008F01DC009F0E6CF0AF044
:1001900007C029F008C02AF009C02BF021EE00F0BA
:1001A0000051056F0C9306EC01F0062FE1D711EE1C
:1001B00003F000C00DF0000E0F6F0E6FE75CD8B4B7
:1001C00022D0D8A41DD0040EE1260D2FF4D70F5154
:1001D0000E5DD8A002D0D8B003D0010E106F03D0AE
:1001E000000E106F00D010C083FF838E839E10C05E
:1001F00011F020EE11F0020EF7ECFEF094EF00F09B
:10020000010E0F27E0D7010E0E27DDD7DECF2CF031
:10021000DECF2DF0DECF2EF0D92A35ECFFF0D8B0AE
:1002200017EC01F00CB31200052FF0D71200D8A480
:100230001BEC01F012000C830551005D040DF3CF9F
:100240000BF0040E0B27010E055DD8B40ED0005143
:10025000040D040EF35CE96E080EF35CD96E47ECF6
:1002600001F00B51D95CD8A40BD044EC01F007C0CD
:10027000DEFF08C0DEFF09C0DEFF0AC0DEFF12009D
:10028000080ED95EE95EEBD7040ED95E1200DECF10
:10029000EEFFDECFEEFFDECFEEFFDECFEEFF120091
:0E02A00001C013F002C014F003C015F01200EC
:020000040001F9
:10FD96000A0E386F1200010E20EE38F0F7ECFEF076
:10FDA60020EE01F002ECFFF01200020E356F120099
:10FDB600120010EE60F000C034F0E5ECFEF0342FD7
:10FDC600FCD71200010E20EE38F0F7ECFEF00CEC3A
:10FDD600FFF01200AB8EAC98AC94AC8AAB886596FB
:10FDE600670EAF6E948C1200366EDE50FEECFEF09F
:10FDF600362EFBD712009EA8FED7AD6E1200030E5C
:10FE0600376F9EAAFED7AECFDEFF9E9A372EF9D762
:10FE16001200040E376F9EAAFED7AECFE6FF9E9A5B
:10FE2600372EF9D71200000E2B6E2A6E296E2E6E13
:10FE36002D6E2C6E316E306E2F6E12002B502E24CE
:10FE4600316E2A512D21306E29512C212F6F12002F
:10FE56002B502E5C316E2A512D59306E29512C595A
:10FE66002F6F120029512C5DD8A406D02A512D5D82
:10FE7600D8A402D02B512E5D12000051040DF3CFF1
:10FE860020F0200721EE00F02491DECF29F0DECF0E
:10FE96002AF0DECF2BF0D92ADECF2CF0DECF2DF0E4
:10FEA600DECF2EF035ECFFF0D8A463ECFFF024B1E2
:10FEB600E9D72051D95CD8B41200030ED95EE4D735
:10FEC600D8A067ECFFF012002481070ED95EDACFC6
:10FED60021F0D9CF22F0D92696ECFFF010EE25F0CE
:10FEE600EECFE6FFEECFE6FFEECFE6FFEECFE6FF84
:10FEF60096ECFFF0EACFE2FFE9CFE1FF040EE12640
:10FF0600E6CFEEFFE6CFEEFFE6CFEEFFE6CFEEFF63
:10FF160010EE25F0E6CFEEFFE6CFEEFFE6CFEEFFE2
:10FF2600E6CFEEFF12002151EA6E2251E96E120071
:10FF36001E6E000E1F6E1E511F5C120019511A5DB7
:10FF4600D8A09BECFFF01200000E1B6E1C6E1D6EFF
:10FF560013C019F016C01AF0A1ECFFF01E6E1E03B6
:10FF66001BC029F01CC02AF01DC02BF0000E2C6F00
:10FF7600F4CF2DF0F3CF2EF021ECFFF02FC01BF0C5
:10FF860030C01CF031C01DF014C019F017C01AF0B3
:10FF9600A1ECFFF01E6E1E031BC029F01CC02AF048
:10FFA6001DC02BF0000E2C6FF4CF2DF0F3CF2EF0EA
:10FFB60021ECFFF02FC01BF030C01CF031C01DF04B
:10FFC60015C019F018C01AF0A1ECFFF01E6E1E0342
:10FFD6001BC029F01CC02AF01DC02BF0000E2C6F90
:10FFE600F4CF2DF0F3CF2EF021ECFFF02FC01BF055
:0AFFF60030C01CF031C01DF01200F5
:020000040030CA
:0700000015137F7CF98B91C1
:06000800FFC0FFE0FF4015
:00000001FF
