:0400000080EF00F09D
:10010000E1ECFFF0E4ECFFF0EFECFFF086EF00F045
:020000040001F9
:10FEF4000F01538D00018D6A12000F0E966E8CEC6B
:10FF0400FFF084CF5AF0F00E966E8CECFFF0845024
:10FF14005A1212005B06FEE21200000E536E526E7D
:10FF2400516E566E556E546E596E586E576E120061
:10FF340053505624596E52515521586E51515521E2
:10FF4400576F12005350565C596E52515559586EA2
:10FF540051515459576F12005151545DD8A406D0D1
:10FF64005251555DD8A402D05351565D1200B116BA
:10FF7400BFFFCC230C05730007FF88E150460E57E2
:10FF84006624AC6906E57BF4633400A8DAF005372F
:10FF940009A62010BD42DA16CFDC84B5CF1DDBD410
:10FFA4001634FF0097218F9DCD61010001010001EE
:10FFB40001010001000101000000000001007F9C1C
:10FFC4007F8E120000EE00F0010EF86EFF0EF76E49
:10FFD400720EF66E3C0E506E0BD000EE3CF0010E2D
:10FFE400F86EFF0EF76EAE0EF66E140E506E00D065
:0CFFF4000900F5CFEEFF502EFBD71200E5
:020000040030CA
:0700000015137F7CF98B91C1
:06000800FFC0FFE0FF4015
:00000001FF
