:0400000080EF00F09D
:10010000030E0D6F2AECFFF02FECFFF0D8ECFEF0A1
:10011000960E0E6FFA0E0F6F1E0E106F0DC012F0BE
:100120001FEC01F001EE00F012EE00F0E6CF03F05C
:10013000E6CF04F0E6CF05F0A7ECFFF008C0EEFF35
:1001400009C0EEFF0AC0EEFFE6CFEEFF122EEED79B
:1001500040ECFFF012EE00F0040E0D03F350E12628
:10016000110E136F1FEC01F0E6CF03F0E6CF04F0A1
:10017000E6CF05F0A7ECFFF008C014F009C015F0B9
:100180000AC016F0E6CF17F014C023F015C024F013
:1001900016C025F021EE00F00D51126F1993D5EC29
:1001A00000F0132FE1D7D3EF00F0DECF26F0DECF43
:1001B00027F0DECF28F0D92AF7ECFEF0D8B0E6EC35
:1001C00000F019B31200122FF0D71200D8A4EAECF5
:1001D00000F01200198312510D5D040DF3CF18F0D9
:1001E000040E1827010E125DD8B40ED00D51040D67
:1001F000040EF35CE96E080EF35CD96E16EC01F0A8
:100200001851D95CD8A40BD013EC01F014C0DEFF58
:1002100015C0DEFF16C0DEFF17C0DEFF1200080E9D
:10022000D95EE95EEBD7040ED95E1200DECFEEFF99
:10023000DECFEEFFDECFEEFFDECFEEFF12000EC010
:0C02400000F00FC001F010C002F012002E
:020000040001F9
:10FD86000F01538D00018D6A12000F0E966ED5EC91
:10FD9600FEF084CF2EF0F00E966ED5ECFEF0845079
:10FDA6002E1212002F06FEE21200000E256E246EA1
:10FDB600236E286E276E266E2B6E2A6E296E120013
:10FDC600255028242B6E245127212A6E23512621C3
:10FDD600296F12002550285C2B6E245127592A6E54
:10FDE60023512659296F12002351265DD8A406D027
:10FDF6002451275DD8A402D02551285D1200B116E2
:10FE0600BF01FFCC23000C0573010007FF0188E149
:10FE16005000460E57016624AC016906E5017BF4E5
:10FE260063003400A801DAF005003709A6012010A6
:10FE3600BD0142DA1600CFDC8400B5CF1D00DBD44D
:10FE4600160034FF000097218F019DCD61007F9C35
:10FE56007F8E500E2C6F120002EE00F0010EF86E2F
:10FE6600FE0EF76E040EF66E2C512D6E00D00900B4
:10FE7600F5CFEEFF2D2EFBD712000D51040DF3CF5B
:10FE86001AF01A0721EE00F01E91DECF23F0DECF26
:10FE960024F0DECF25F0D92ADECF26F0DECF27F0FC
:10FEA600DECF28F0F7ECFEF0D8A463ECFFF01EB12D
:10FEB600E9D71A51D95CD8B41200030ED95EE4D73B
:10FEC600D8A067ECFFF012001E81070ED95EDACFCC
:10FED6001BF0D9CF1CF0D92696ECFFF010EE1FF0E0
:10FEE600EECFE6FFEECFE6FFEECFE6FFEECFE6FF84
:10FEF60096ECFFF0EACFE2FFE9CFE1FF040EE12640
:10FF0600E6CFEEFFE6CFEEFFE6CFEEFFE6CFEEFF63
:10FF160010EE1FF0E6CFEEFFE6CFEEFFE6CFEEFFE8
:10FF2600E6CFEEFF12001B51EA6E1C51E96E12007D
:10FF36000B6E000E0C6E0B510C5C12000651075D29
:10FF4600D8A09BECFFF01200000E086E096E0A6E38
:10FF560000C006F003C007F0A1ECFFF00B6E0B0328
:10FF660008C023F009C024F00AC025F0000E266F51
:10FF7600F4CF27F0F3CF28F0E3ECFEF029C008F029
:10FF86002AC009F02BC00AF001C006F004C007F031
:10FF9600A1ECFFF00B6E0B0308C023F009C024F0A0
:10FFA6000AC025F0000E266FF4CF27F0F3CF28F015
:10FFB600E3ECFEF029C008F02AC009F02BC00AF0D5
:10FFC60002C006F005C007F0A1ECFFF00B6E0B03B4
:10FFD60008C023F009C024F00AC025F0000E266FE1
:10FFE600F4CF27F0F3CF28F0E3ECFEF029C008F0B9
:0AFFF6002AC009F02BC00AF0120027
:020000040030CA
:0700000015137F7CF98B91C1
:06000800FFC0FFE0FF4015
:00000001FF
