:0400000080EF00F09D
:10010000030E0D6F2AECFFF02FECFFF0D8ECFEF0A1
:10011000960E0E6FFA0E0F6F1E0E106F0DC012F0BE
:1001200010EC01F001EE00F012EE00F0E6CF03F06B
:10013000E6CF04F0E6CF05F0A7ECFFF008C0EEFF35
:1001400009C0EEFF0AC0EEFFE6CFEEFF122EEED79B
:1001500040ECFFF012EE00F0040E0D03F350E12628
:1001600010EC01F0E6CF03F0E6CF04F0E6CF05F0A7
:10017000A7ECFFF008C013F009C014F00AC015F096
:10018000E6CF16F013C021F014C022F015C023F002
:1001900021EE00F00D51126FDECF24F0DECF25F0FE
:1001A000DECF26F0D92AF7ECFEF0D8B0DCEC00F078
:1001B000122FF2D7DAEF00F0D8A4E0EC00F0120032
:1001C00012510D5D040DF3CF17F0040E17270D51DA
:1001D000040D040EF35CE96E080EF35CD96E07ECB7
:1001E00001F01751D95CD8A40BD004EC01F013C076
:1001F000DEFF14C0DEFF15C0DEFF16C0DEFF1200FA
:10020000080ED95EE95EEBD7040ED95E1200DECF90
:10021000EEFFDECFEEFFDECFEEFFDECFEEFF120011
:0E0220000EC000F00FC001F010C002F012007E
:020000040001F9
:10FD86000F01538D00018D6A12000F0E966ED5EC91
:10FD9600FEF084CF2CF0F00E966ED5ECFEF084507B
:10FDA6002C1212002D06FEE21200000E236E226EA9
:10FDB600216E266E256E246E296E286E276E120021
:10FDC60023502624296E22512521286E21512421D3
:10FDD600276F12002350265C296E22512559286E62
:10FDE60021512459276F12002151245DD8A406D031
:10FDF6002251255DD8A402D02351265D1200B116EA
:10FE0600BF01FFCC23000C0573010007FF0188E149
:10FE16005000460E57016624AC016906E5017BF4E5
:10FE260063003400A801DAF005003709A6012010A6
:10FE3600BD0142DA1600CFDC8400B5CF1D00DBD44D
:10FE4600160034FF000097218F019DCD61007F9C35
:10FE56007F8E500E2A6F120002EE00F0010EF86E31
:10FE6600FE0EF76E040EF66E2A512B6E00D00900B8
:10FE7600F5CFEEFF2B2EFBD712000D51040DF3CF5D
:10FE860018F0180721EE00F01C91DECF21F0DECF2E
:10FE960022F0DECF23F0D92ADECF24F0DECF25F004
:10FEA600DECF26F0F7ECFEF0D8A463ECFFF01CB131
:10FEB600E9D71851D95CD8B41200030ED95EE4D73D
:10FEC600D8A067ECFFF012001C81070ED95EDACFCE
:10FED60019F0D9CF1AF0D92696ECFFF010EE1DF0E6
:10FEE600EECFE6FFEECFE6FFEECFE6FFEECFE6FF84
:10FEF60096ECFFF0EACFE2FFE9CFE1FF040EE12640
:10FF0600E6CFEEFFE6CFEEFFE6CFEEFFE6CFEEFF63
:10FF160010EE1DF0E6CFEEFFE6CFEEFFE6CFEEFFEA
:10FF2600E6CFEEFF12001951EA6E1A51E96E120081
:10FF36000B6E000E0C6E0B510C5C12000651075D29
:10FF4600D8A09BECFFF01200000E086E096E0A6E38
:10FF560000C006F003C007F0A1ECFFF00B6E0B0328
:10FF660008C021F009C022F00AC023F0000E246F59
:10FF7600F4CF25F0F3CF26F0E3ECFEF027C008F02F
:10FF860028C009F029C00AF001C006F004C007F035
:10FF9600A1ECFFF00B6E0B0308C021F009C022F0A4
:10FFA6000AC023F0000E246FF4CF25F0F3CF26F01D
:10FFB600E3ECFEF027C008F028C009F029C00AF0DB
:10FFC60002C006F005C007F0A1ECFFF00B6E0B03B4
:10FFD60008C021F009C022F00AC023F0000E246FE9
:10FFE600F4CF25F0F3CF26F0E3ECFEF027C008F0BF
:0AFFF60028C009F029C00AF012002B
:020000040030CA
:0700000015137F7CF98B91C1
:06000800FFC0FFE0FF4015
:00000001FF
