:0400000080EF00F09D
:10010000050E006F2AECFFF02FECFFF0D8ECFEF0AC
:10011000960E016FFA0E026F1E0E036F00C005F0FF
:100120003FEC01F001EE00F012EE00F0E6CF14F02B
:10013000E6CF15F0E6CF16F0A7ECFFF019C0EEFF02
:100140001AC0EEFF1BC0EEFFE6CFEEFF052EEED786
:1001500040ECFFF012EE00F0040E0003F350E12635
:10016000110E066F3FEC01F0E6CF14F0E6CF15F06C
:10017000E6CF16F0A7ECFFF019C007F01AC008F0A0
:100180001BC009F0E6CF0AF007C027F008C028F02E
:1001900009C029F021EE00F00051056F0C93F5EC39
:1001A00000F0062FE1D711EE03F000C00DF0000EB5
:1001B000E75CD8B417D0D8A412D0040EE1260D2FD6
:1001C000F6D70F510E5DD8A002D0D8B004D0010EE2
:1001D000106FE9EF00F0010E106FEDEF00F0010E6F
:1001E0000F27EBD7010E0E27E8D7DECF2AF0DECFA0
:1001F0002BF0DECF2CF0D92AF7ECFEF0D8B006ECCD
:1002000001F00CB31200052FF0D71200D8A40AECAD
:1002100001F012000C830551005D040DF3CF0BF0CB
:10022000040E0B27010E055DD8B40ED00051040D4D
:10023000040EF35CE96E080EF35CD96E36EC01F047
:100240000B51D95CD8A40BD033EC01F007C0DEFF12
:1002500008C0DEFF09C0DEFF0AC0DEFF1200080E84
:10026000D95EE95EEBD7040ED95E1200DECFEEFF59
:10027000DECFEEFFDECFEEFFDECFEEFF120001C0DD
:0C02800011F002C012F003C013F01200D5
:020000040001F9
:10FD86000F01538D00018D6A12000F0E966ED5EC91
:10FD9600FEF084CF32F0F00E966ED5ECFEF0845075
:10FDA600321212003306FEE21200000E296E286E91
:10FDB600276E2C6E2B6E2A6E2F6E2E6E2D6E1200F7
:10FDC60029502C242F6E28512B212E6E27512A21A3
:10FDD6002D6F120029502C5C2F6E28512B592E6E38
:10FDE60027512A592D6F120027512A5DD8A406D013
:10FDF60028512B5DD8A402D029512C5D1200B116D2
:10FE0600BF01FFCC23000C0573010007FF0188E149
:10FE16005000460E57016624AC016906E5017BF4E5
:10FE260063003400A801DAF005003709A6012010A6
:10FE3600BD0142DA1600CFDC8400B5CF1D00DBD44D
:10FE4600160034FF000097218F019DCD61007F9C35
:10FE56007F8E500E306F120002EE00F0010EF86E2B
:10FE6600FE0EF76E040EF66E3051316E00D00900AC
:10FE7600F5CFEEFF312EFBD712000051040DF3CF64
:10FE86001EF01E0721EE00F02291DECF27F0DECF16
:10FE960028F0DECF29F0D92ADECF2AF0DECF2BF0EC
:10FEA600DECF2CF0F7ECFEF0D8A463ECFFF022B125
:10FEB600E9D71E51D95CD8B41200030ED95EE4D737
:10FEC600D8A067ECFFF012002281070ED95EDACFC8
:10FED6001FF0D9CF20F0D92696ECFFF010EE23F0D4
:10FEE600EECFE6FFEECFE6FFEECFE6FFEECFE6FF84
:10FEF60096ECFFF0EACFE2FFE9CFE1FF040EE12640
:10FF0600E6CFEEFFE6CFEEFFE6CFEEFFE6CFEEFF63
:10FF160010EE23F0E6CFEEFFE6CFEEFFE6CFEEFFE4
:10FF2600E6CFEEFF12001F51EA6E2051E96E120075
:10FF36001C6E000E1D6E1C511D5C12001751185DC3
:10FF4600D8A09BECFFF01200000E196E1A6E1B6E05
:10FF560011C017F014C018F0A1ECFFF01C6E1C03C2
:10FF660019C027F01AC028F01BC029F0000E2A6F0E
:10FF7600F4CF2BF0F3CF2CF0E3ECFEF02DC019F00C
:10FF86002EC01AF02FC01BF012C017F015C018F0C3
:10FF9600A1ECFFF01C6E1C0319C027F01AC028F054
:10FFA6001BC029F0000E2A6FF4CF2BF0F3CF2CF0F4
:10FFB600E3ECFEF02DC019F02EC01AF02FC01BF096
:10FFC60013C017F016C018F0A1ECFFF01C6E1C034E
:10FFD60019C027F01AC028F01BC029F0000E2A6F9E
:10FFE600F4CF2BF0F3CF2CF0E3ECFEF02DC019F09C
:0AFFF6002EC01AF02FC01BF01200FD
:020000040030CA
:0700000015137F7CF98B91C1
:06000800FFC0FFE0FF4015
:00000001FF
