:0400000080EF00F09D
:10010000050E006FC8ECFEF00A0E136FEDECFEF06A
:10011000BBECFEF0DCECFEF0CBECFEF08EEF00F082
:10012000000E956E16ECFFF0BEECFEF000C005F080
:1001300053EC01F001EE00F010EE60F0E6CF17F0A6
:10014000E6CF18F0E6CF19F0A7ECFFF01CC0EEFFE9
:100150001DC0EEFF1EC0EEFFE6CFEEFF052EEED770
:1001600040ECFFF012EE00F053EC01F0400E066F91
:10017000E6CF17F0E6CF18F0E6CF19F0A7ECFFF0C6
:100180001CC008F01DC009F01EC00AF0E6CF0BF03D
:1001900008C02AF009C02BF00AC02CF021EE00F0B4
:1001A0000051056F0D9309EC01F0000E062FE0D70A
:1001B000075BDCD711EE03F000C00EF0000E106FED
:1001C0000F6FE75CD8B422D0D8A41DD0040EE1266E
:1001D0000E2FF4D710510F5DD8A002D0D8B003D0A5
:1001E000010E116F03D0000E116F00D011C083FFFC
:1001F000838E839E11C012F020EE12F0020EF7ECF7
:10020000FEF094EF00F0010E1027E0D7010E0F274B
:10021000DDD7DECF2DF0DECF2EF0DECF2FF0D92AC6
:1002200035ECFFF0D8B01AEC01F00DB31200052F39
:10023000F0D71200D8A41EEC01F012000D83055176
:10024000005D040DF3CF0CF0040E0C27010E055DCC
:10025000D8B40ED00051040D040EF35CE96E080E04
:10026000F35CD96E4AEC01F00C51D95CD8A40BD0E8
:1002700047EC01F008C0DEFF09C0DEFF0AC0DEFF68
:100280000BC0DEFF1200080ED95EE95EEBD7040E4C
:10029000D95E1200DECFEEFFDECFEEFFDECFEEFF47
:1002A000DECFEEFF120001C014F002C015F003C053
:0402B00016F0120032
:020000040001F9
:10FD76000A0E3A6F1200010E20EE3AF0F7ECFEF092
:10FD860020EE01F002ECFFF01200020E366F1200B8
:10FD960011EE00F036C037F0000E356FE5ECFEF0E0
:10FDA600000E3507350735073507375BD8B0F6D768
:10FDB600120010EE60F000C035F0E5ECFEF0352FD5
:10FDC600FCD71200010E20EE3AF0F7ECFEF00CEC38
:10FDD600FFF01200AB8EAC98AC94AC8AAB886596FB
:10FDE600670EAF6E948C1200386EDE50FEECFEF09D
:10FDF600382EFBD712009EA8FED7AD6E1200030E5A
:10FE0600396F9EAAFED7AECFDEFF9E9A392EF9D75E
:10FE16001200040E396F9EAAFED7AECFE6FF9E9A59
:10FE2600392EF9D71200000E2C6E2B6E2A6E2F6E0D
:10FE36002E6E2D6E326E316E306E12002C502F24C7
:10FE4600326E2B512E21316E2A512D21306F120028
:10FE56002C502F5C326E2B512E59316E2A512D5952
:10FE6600306F12002A512D5DD8A406D02B512E5D7D
:10FE7600D8A402D02C512F5D12000051040DF3CFEF
:10FE860021F0210721EE00F02591DECF2AF0DECF0A
:10FE96002BF0DECF2CF0D92ADECF2DF0DECF2EF0E0
:10FEA600DECF2FF035ECFFF0D8A463ECFFF025B1E0
:10FEB600E9D72151D95CD8B41200030ED95EE4D734
:10FEC600D8A067ECFFF012002581070ED95EDACFC5
:10FED60022F0D9CF23F0D92696ECFFF010EE26F0CB
:10FEE600EECFE6FFEECFE6FFEECFE6FFEECFE6FF84
:10FEF60096ECFFF0EACFE2FFE9CFE1FF040EE12640
:10FF0600E6CFEEFFE6CFEEFFE6CFEEFFE6CFEEFF63
:10FF160010EE26F0E6CFEEFFE6CFEEFFE6CFEEFFE1
:10FF2600E6CFEEFF12002251EA6E2351E96E12006F
:10FF36001F6E000E206E1F51205C12001A511B5DB1
:10FF4600D8A09BECFFF01200000E1C6E1D6E1E6EFC
:10FF560014C01AF017C01BF0A1ECFFF01F6E1F03B0
:10FF66001CC02AF01DC02BF01EC02CF0000E2D6FF9
:10FF7600F4CF2EF0F3CF2FF021ECFFF030C01CF0C1
:10FF860031C01DF032C01EF015C01AF018C01BF0AB
:10FF9600A1ECFFF01F6E1F031CC02AF01DC02BF042
:10FFA6001EC02CF0000E2D6FF4CF2EF0F3CF2FF0E5
:10FFB60021ECFFF030C01CF031C01DF032C01EF045
:10FFC60016C01AF019C01BF0A1ECFFF01F6E1F033C
:10FFD6001CC02AF01DC02BF01EC02CF0000E2D6F89
:10FFE600F4CF2EF0F3CF2FF021ECFFF030C01CF051
:0AFFF60031C01DF032C01EF01200F1
:020000040030CA
:0700000015137F7CF98B91C1
:06000800FFC0FFE0FF4015
:00000001FF
