:0400000080EF00F09D
:10010000030E166F78ECFFF07FECFFF08AECFFF047
:1001100026ECFFF0960E176FFA0E186F1E0E196F71
:1001200016C01CF0AAEC00F001EE00F012EE00F098
:10013000E6CF03F0E6CF04F0E6CF05F0A7ECFFF042
:1001400008C0EEFF09C0EEFF0AC0EEFF1C2EF0D77C
:10015000A8EF00F017C000F018C001F019C002F0BD
:0201600012008B
:020000040001F9
:10FE22000F01538D00018D6A12000F0E966E23ECA6
:10FE3200FFF084CF1FF0F00E966E23ECFFF084509B
:10FE42001F1212002006FEE21200000E0F6E0E6E4E
:10FE52000D6E126E116E106E156E146E136E120010
:10FE62000F501224156E0E511121146E0D511021D6
:10FE7200136F12000F50125C156E0E511159146E51
:10FE82000D511059136F12000D51105DD8A406D0F8
:10FE92000E51115DD8A402D00F51125D1200B1169D
:10FEA200BFFFCC230C05730007FF88E150460E57B5
:10FEB2006624AC6906E57BF4633400A8DAF0053702
:10FEC20009A62010BD42DA16CFDC84B5CF1DDBD4E3
:10FED2001634FF0097218F9DCD61010001010001C1
:10FEE20001010001000101000000000001007F9CEF
:10FEF2007F8E3C0E1D6F140E1E6F120002EE00F07C
:10FF0200010EF86EFE0EF76EA00EF66E1D51506ECB
:10FF12000BD002EE3CF0010EF86EFE0EF76EDC0E18
:10FF2200F66E1E51506E00D00900F5CFEEFF502E36
:10FF3200FBD712000B6E000E0C6E0B510C5C120004
:10FF42000651075DD8A09BECFFF01200000E086E70
:10FF5200096E0A6E00C006F003C007F0A1ECFFF0C4
:10FF62000B6E0B0308C00DF009C00EF00AC00FF0B3
:10FF7200000E106FF4CF11F0F3CF12F031ECFFF05E
:10FF820013C008F014C009F015C00AF001C006F051
:10FF920004C007F0A1ECFFF00B6E0B0308C00DF0DC
:10FFA20009C00EF00AC00FF0000E106FF4CF11F06E
:10FFB200F3CF12F031ECFFF013C008F014C009F0D7
:10FFC20015C00AF002C006F005C007F0A1ECFFF070
:10FFD2000B6E0B0308C00DF009C00EF00AC00FF043
:10FFE200000E106FF4CF11F0F3CF12F031ECFFF0EE
:0EFFF20013C008F014C009F015C00AF0120088
:020000040030CA
:0700000015137F7CF98B91C1
:06000800FFC0FFE0FF4015
:00000001FF
