:0400000080EF00F09D
:10010000050E006FD7ECFFF00A0E126FDEECFFF069
:10011000EFECFFF044ECFEF031ECFEF0000E956EDB
:1001200063ECFEF034ECFEF000C005F04EEC01F0A4
:1001300001EE00F010EE60F0E6CF16F0E6CF17F01B
:10014000E6CF18F0F4ECFEF01BC0EEFF1CC0EEFF93
:100150001DC0EEFFE6CFEEFF052EEED78DECFEF0D4
:1001600012EE00F0400E066F4EEC01F0E6CF16F0F6
:10017000E6CF17F0E6CF18F0F4ECFEF01BC007F066
:100180001CC008F01DC009F0E6CF0AF007C029F036
:1001900008C02AF009C02BF021EE00F00051056FD5
:1001A0000C9304EC01F0062FE1D711EE03F000C030
:1001B0000DF0000E0F6F0E6FE75CD8B422D0D8A4FC
:1001C0001DD0040EE1260D2FF4D70F510E5DD8A0DF
:1001D00002D0D8B003D0010E106F03D0000E106F04
:1001E00000D010C083FF838E839E10C011F020EEDC
:1001F00011F0020E4EECFEF092EF00F0010E0F2710
:10020000E0D7010E0E27DDD7DECF2CF0DECF2DF0AC
:10021000DECF2EF0D92A82ECFEF0D8B015EC01F03A
:100220000CB31200052FF0D71200D8A419EC01F07E
:1002300012000C830551005D040DF3CF0BF0040E8A
:100240000B27010E055DD8B40ED00051040D040E2D
:10025000F35CE96E080EF35CD96E45EC01F00B51CE
:10026000D95CD8A40BD042EC01F007C0DEFF08C077
:10027000DEFF09C0DEFF0AC0DEFF1200080ED95EF5
:10028000E95EEBD7040ED95E1200DECFEEFFDECFC3
:10029000EEFFDECFEEFFDECFEEFF120001C013F067
:0A02A00002C014F003C015F01200B4
:020000040001F9
:10FC62000A0E376F1200010E20EE37F04EECFEF056
:10FC720020EE01F059ECFEF01200010E20EE37F0FA
:10FC82004EECFEF01200AB8EAC98AC94AC8AAB8812
:10FC92006596670EAF6E948C1200356EDE5055EC91
:10FCA200FEF0352EFBD712009EA8FED7AD6E1200D5
:10FCB200030E366F9EAAFED7AECFDEFF9E9A362E79
:10FCC200F9D71200000E2B6E2A6E296E2E6E2D6E43
:10FCD2002C6E316E306E2F6E12002B502E24316E30
:10FCE2002A512D21306E29512C212F6F12002B50B9
:10FCF2002E5C316E2A512D59306E29512C592F6F9D
:10FD0200120029512C5DD8A406D02A512D5DD8A409
:10FD120002D02B512E5D12000051040DF3CF20F0C2
:10FD2200200721EE00F02491DECF29F0DECF2AF069
:10FD3200DECF2BF0D92ADECF2CF0DECF2DF0DECFB6
:10FD42002EF082ECFEF0D8A4B0ECFEF024B1E9D79C
:10FD52002051D95CD8B41200030ED95EE4D7D8A0E2
:10FD6200B4ECFEF012002481070ED95EDACF21F046
:10FD7200D9CF22F0D926E3ECFEF010EE25F0EECF3B
:10FD8200E6FFEECFE6FFEECFE6FFEECFE6FFE3ECD7
:10FD9200FEF0EACFE2FFE9CFE1FF040EE126E6CF73
:10FDA200EEFFE6CFEEFFE6CFEEFFE6CFEEFF10EE80
:10FDB20025F0E6CFEEFFE6CFEEFFE6CFEEFFE6CF91
:10FDC200EEFF12002151EA6E2251E96E12001E6E00
:10FDD200000E1F6E1E511F5C120019511A5DD8A031
:10FDE200E8ECFEF01200000E1B6E1C6E1D6E13C0BE
:10FDF20019F016C01AF0EEECFEF01E6E1E031BC0C8
:10FE020029F01CC02AF01DC02BF0000E2C6FF4CF7D
:10FE12002DF0F3CF2EF06EECFEF02FC01BF030C0B1
:10FE22001CF031C01DF014C019F017C01AF0EEEC2E
:10FE3200FEF01E6E1E031BC029F01CC02AF01DC05E
:10FE42002BF0000E2C6FF4CF2DF0F3CF2EF06EECD2
:10FE5200FEF02FC01BF030C01CF031C01DF015C0E9
:10FE620019F018C01AF0EEECFEF01E6E1E031BC055
:10FE720029F01CC02AF01DC02BF0000E2C6FF4CF0D
:10FE82002DF0F3CF2EF06EECFEF02FC01BF030C041
:10FE92001CF031C01DF012005A162501481BC30187
:10FEA200C6D47600B116BF01FFCC23004509790103
:10FEB200A7DB4100642596017042A401FBE35A00CE
:10FEC200D3CE3800B9DC55007C17AE014EDB2E00D4
:10FED200C9D476006611A70177E4600048279A0129
:10FEE2004E423D01B1BE320078389F019BDE470091
:10FEF20080E25900152A9201BAD52E0087D322003A
:10FF020044FF1E0096DD5900E9EE3700132B8801ED
:10FF12001B2083013A1D8601B1DD7F00501BC30106
:10FF22005A328B019FD134002C07A8016000AB012B
:10FF32002B269B01D3F64700561C6E01B1DB0D0048
:10FF4200A1F48200B9F1210094D652005919BB01E3
:10FF5200000D5F0188E845002A2BFF01C7F14C0024
:10FF6200543DC101562ABE01D7E85900342A78010E
:10FF72008ECF65004300C10161172501B5E445003C
:10FF82003D1AB6018AED2C0037069E011D1792011B
:10FF9200960543018FE466000C21B501A6D6480000
:10FFA20076F56700FFC90000A4CE4A007F9C7F8ED1
:10FFB200FF0E326F140E336F120002EE00F0010ECC
:10FFC200F86EFE0EF76EAE0EF66E3251346E00D043
:10FFD2000900F5CFEEFF342EFBD7120000EE60F0E1
:10FFE200010EF86EFE0EF76E9A0EF66E3351346EF7
:0EFFF200EFD70900F5CFEEFF342EFBD712003B
:020000040030CA
:0700000015137F7CF98B91C1
:06000800FFC0FFE0FF4015
:00000001FF
