:0400000080EF00F09D
:10010000000E946E956E966ED6ECFFF0000E026EA9
:10011000056E000E016E000E046EF5ECFFF0010E90
:10012000D8A4020ED8A0030E826E836E846E97EF61
:0201300000F0DD
:020000040001F9
:10FF82000F01538D00018D6A12000F0E966ED3EC95
:10FF9200FFF084CF09F0F00E966ED3ECFFF08450A0
:10FFA200091212000A06FEE21200000E026E016E33
:10FFB200006E056E046E036E086E076E066E12000A
:10FFC20002500524086E01510421076E00510421DC
:10FFD200066F12000250055C086E01510459076E4B
:10FFE20000510359066F12000051035DD8A406D0D8
:0EFFF2000151045DD8A402D00251055D120039
:020000040030CA
:0700000015137F7CF98B91C1
:06000800FFC0FFE0FF4015
:00000001FF
