:0400000080EF00F09D
:10010000E1ECFFF0E4ECFFF0EFECFFF05CECFFF073
:10011000020E006F016F026F010E036F046F056F17
:1001200090ECFFF008C011F0000E006F016F026F3D
:10013000036F046F056F90ECFFF008C014F0000E21
:10014000006F016F026F036F046FFF0E056F90EC7D
:0A015000FFF008C011F0ABEF00F063
:020000040001F9
:10FE8E000F01538D00018D6A12000F0E966E59EC04
:10FE9E00FFF084CF23F0F00E966E59ECFFF08450F5
:10FEAE00231212002406FEE21200000E1C6E1B6EC0
:10FEBE001A6E1F6E1E6E1D6E226E216E206E120049
:10FECE001C501F24226E1B511E21216E1A511D2102
:10FEDE00206F12001C501F5C226E1B511E59216E8A
:10FEEE001A511D59206F12001A511D5DD8A406D04B
:10FEFE001B511E5DD8A402D01C511F5D12000B6E4B
:10FF0E00FF0E0B5E12000651075DD8A086ECFFF0C7
:10FF1E001200000E086E096E0A6E030E0C6E10EEC5
:10FF2E0000F020EE03F0E6CF06F0DECF07F08AEC0D
:10FF3E00FFF00B6E0B0308C01AF009C01BF00AC0CD
:10FF4E001CF0000E1D6FF4CF1EF0F3CF1FF067EC08
:10FF5E00FFF020C008F021C009F022C00AF00C2FDB
:10FF6E00E2D71200B116BFFFCC230C05730007FFBA
:10FF7E0088E150460E576624AC6906E57BF463347F
:10FF8E0000A8DAF0053709A62010BD42DA16CFDC3C
:10FF9E0084B5CF1DDBD41634FF0097218F9DCD6124
:10FFAE00010001010001010100010001010000003A
:10FFBE00000001007F9C7F8E120000EE00F0010E0B
:10FFCE00F86EFF0EF76E720EF66E3C0E506E0BD084
:10FFDE0000EE3CF0010EF86EFF0EF76EAE0EF66EF2
:10FFEE00140E506E00D00900F5CFEEFF502EFBD749
:02FFFE001200EF
:020000040030CA
:0700000015137F7CF98B91C1
:06000800FFC0FFE0FF4015
:00000001FF
