:0400000080EF00F09D
:10010000050E006FD7ECFFF0DEECFFF0EFECFFF038
:1001100063ECFEF0960E016FFA0E026F1E0E036F77
:1001200000C005F03DEC01F001EE00F010EE60F0D3
:10013000E6CF14F0E6CF15F0E6CF16F0F4ECFEF0C3
:1001400019C0EEFF1AC0EEFF1BC0EEFFE6CFEEFFB8
:10015000052EEED78DECFEF012EE00F0400E066F8D
:100160003DEC01F0E6CF14F0E6CF15F0E6CF16F047
:10017000F4ECFEF019C007F01AC008F01BC009F03B
:10018000E6CF0AF007C027F008C028F009C029F020
:1001900021EE00F00051056F0C93F3EC00F0062FF8
:1001A000E1D711EE03F000C00DF0000EE75CD8B40B
:1001B00017D0D8A412D0040EE1260D2FF6D70F5178
:1001C0000E5DD8A002D0D8B004D0010E106FE7EFBA
:1001D00000F0000E106FEBEF00F0010E0F27EBD7D1
:1001E000010E0E27E8D7DECF2AF0DECF2BF0DECFD0
:1001F0002CF0D92A82ECFEF0D8B004EC01F00CB35C
:100200001200052FF0D71200D8A408EC01F012005C
:100210000C830551005D040DF3CF0BF0040E0B278A
:10022000010E055DD8B40ED00051040D040EF35C30
:10023000E96E080EF35CD96E34EC01F00B51D95C19
:10024000D8A40BD031EC01F007C0DEFF08C0DEFF00
:1002500009C0DEFF0AC0DEFF1200080ED95EE95EAB
:10026000EBD7040ED95E1200DECFEEFFDECFEEFF3D
:10027000DECFEEFFDECFEEFF120001C011F002C0B4
:0802800012F003C013F012009C
:020000040001F9
:10FC9C00AB8EAC98AC94AC8AAB886596670EAF6EA5
:10FCAC00948C1200336EDE505FECFEF0332EFBD7DB
:10FCBC0012009EA8FED7AD6E1200000E296E286EA3
:10FCCC00276E2C6E2B6E2A6E2F6E2E6E2D6E1200E2
:10FCDC0029502C242F6E28512B212E6E27512A218E
:10FCEC002D6F120029502C5C2F6E28512B592E6E23
:10FCFC0027512A592D6F120027512A5DD8A406D0FE
:10FD0C0028512B5DD8A402D029512C5D1200005132
:10FD1C00040DF3CF1EF01E0721EE00F02291DECF72
:10FD2C0027F0DECF28F0DECF29F0D92ADECF2AF05B
:10FD3C00DECF2BF0DECF2CF082ECFEF0D8A4B0ECB2
:10FD4C00FEF022B1E9D71E51D95CD8B41200030ED3
:10FD5C00D95EE4D7D8A0B4ECFEF012002281070ED5
:10FD6C00D95EDACF1FF0D9CF20F0D926E3ECFEF024
:10FD7C0010EE23F0EECFE6FFEECFE6FFEECFE6FF80
:10FD8C00EECFE6FFE3ECFEF0EACFE2FFE9CFE1FFD6
:10FD9C00040EE126E6CFEEFFE6CFEEFFE6CFEEFF58
:10FDAC00E6CFEEFF10EE23F0E6CFEEFFE6CFEEFF50
:10FDBC00E6CFEEFFE6CFEEFF12001F51EA6E2051A8
:10FDCC00E96E12001C6E000E1D6E1C511D5C1200A3
:10FDDC001751185DD8A0E8ECFEF01200000E196E59
:10FDEC001A6E1B6E11C017F014C018F0EEECFEF07A
:10FDFC001C6E1C0319C027F01AC028F01BC029F078
:10FE0C00000E2A6FF4CF2BF0F3CF2CF06EECFEF03B
:10FE1C002DC019F02EC01AF02FC01BF012C017F015
:10FE2C0015C018F0EEECFEF01C6E1C0319C027F088
:10FE3C001AC028F01BC029F0000E2A6FF4CF2BF04B
:10FE4C00F3CF2CF06EECFEF02DC019F02EC01AF092
:10FE5C002FC01BF013C017F016C018F0EEECFEF01C
:10FE6C001C6E1C0319C027F01AC028F01BC029F007
:10FE7C00000E2A6FF4CF2BF0F3CF2CF06EECFEF0CB
:10FE8C002DC019F02EC01AF02FC01BF012005A16FC
:10FE9C002501481BC301C6D47600B116BF01FFCCA7
:10FEAC00230045097901A7DB4100642596017042C6
:10FEBC00A401FBE35A00D3CE3800B9DC55007C1703
:10FECC00AE014EDB2E00C9D476006611A70177E493
:10FEDC00600048279A014E423D01B1BE320078388D
:10FEEC009F019BDE470080E25900152A9201BAD58A
:10FEFC002E0087D3220044FF1E0096DD5900E9EE48
:10FF0C003700132B88011B2083013A1D8601B1DDBC
:10FF1C007F00501BC3015A328B019FD134002C0738
:10FF2C00A8016000AB012B269B01D3F64700561CA1
:10FF3C006E01B1DB0D00A1F48200B9F1210094D661
:10FF4C0052005919BB01000D5F0188E845002A2BAE
:10FF5C00FF01C7F14C00543DC101562ABE01D7E840
:10FF6C005900342A78018ECF65004300C101611716
:10FF7C002501B5E445003D1AB6018AED2C00370683
:10FF8C009E011D179201960543018FE466000C211A
:10FF9C00B501A6D6480076F56700FFC90000A4CECF
:10FFAC004A007F9C7F8EFF0E306F140E316F120053
:10FFBC0002EE00F0010EF86EFE0EF76EAE0EF66E4F
:10FFCC003051326E00D00900F5CFEEFF322EFBD748
:10FFDC00120000EE60F0010EF86EFE0EF76E9A0E37
:10FFEC00F66E3151326EEFD70900F5CFEEFF322E9F
:04FFFC00FBD712001D
:020000040030CA
:0700000015137F7CF98B91C1
:06000800FFC0FFE0FF4015
:00000001FF
