:0400000080EF00F09D
:10010000E1ECFFF0E4ECFFF0EFECFFF05AECFFF075
:10011000000E006F016F026FFF0E036F046F056F1B
:1001200090ECFFF008C012F0000E006F016F026F3C
:10013000036F046F056F90ECFFF008C015F0000E20
:10014000006F016F026F036F046FFF0E056F90EC7D
:0A015000FFF008C012F0ABEF00F062
:020000040001F9
:10FE8A000F01538D00018D6A12000F0E966E57EC0A
:10FE9A00FFF084CF24F0F00E966E57ECFFF08450FA
:10FEAA00241212002506FEE21200000E1D6E1C6EC0
:10FEBA001B6E206E1F6E1E6E236E226E216E120046
:10FECA001D502024236E1C511F21226E1B511E21FE
:10FEDA00216F12001D50205C236E1C511F59226E87
:10FEEA001B511E59216F12001B511E5DD8A406D04A
:10FEFA001C511F5DD8A402D01D51205D12000B6E4B
:10FF0A00000E0C6E0B510C5C12000651075DD8A056
:10FF1A0084ECFFF01200000E086E096E0A6E030EE2
:10FF2A000D6E10EE00F020EE03F0E6CF06F0DECF05
:10FF3A0007F08AECFFF00B6E0B0308C01BF009C038
:10FF4A001CF00AC01DF0000E1E6FF4CF1FF0F3CF95
:10FF5A0020F065ECFFF021C008F022C009F023C0B0
:10FF6A000AF00D2FE2D71200B116BFFFCC230C0501
:10FF7A00730007FF88E150460E576624AC6906E510
:10FF8A007BF4633400A8DAF0053709A62010BD42D5
:10FF9A00DA16CFDC84B5CF1DDBD41634FF009721E7
:10FFAA008F9DCD61010001010001010100010001E5
:10FFBA0001000000000001007F9C7F8E120000EE0D
:10FFCA0000F0010EF86EFF0EF76E720EF66E3C0E22
:10FFDA00506E0BD000EE3CF0010EF86EFF0EF76E7D
:10FFEA00AE0EF66E140E506E00D00900F5CFEEFF7D
:06FFFA00502EFBD712009F
:020000040030CA
:0700000015137F7CF98B91C1
:06000800FFC0FFE0FF4015
:00000001FF
